:100000000C945A000C9477000C9477000C947700B1
:100010000C9477000C9477000C9477000C94770084
:100020000C9477000C9477000C9477000C94770074
:100030000C9477000C9477000C9477000C94770064
:100040000C9471010C9477000C9477000C94770059
:100050000C9477000C9477000C9477000C94770044
:100060000C9477000C947700000024272A000025C8
:10007000282B000023262904040404040404040299
:100080000202020202030303030303010204081035
:100090002040800102040810200102040810200002
:1000A0000000070002010000030406000000000039
:1000B0000000000011241FBECFEFD4E0DEBFCDBF93
:1000C00011E0A0E0B1E0EAE0F6E002C005900D9298
:1000D000A431B107D9F711E0A4E1B1E001C01D924C
:1000E000AE31B107E1F70E946A010C9403030C944E
:1000F00000008AE00E94B7029093150180931401DA
:10010000019709F0B4C061E0809100010E946C0287
:100110006091120170911301882777FD8095982FC7
:100120000E94DC0160E0809100010E946C0261E0AD
:10013000809102010E946C02609112017091130182
:10014000882777FD8095982F0E94DC0160E08091E0
:1001500002010E946C0261E0809104010E946C0225
:100160006091120170911301882777FD8095982F77
:100170000E94DC0160E0809104010E946C0261E059
:10018000809106010E946C0260911201709113012E
:10019000882777FD8095982F0E94DC0160E0809190
:1001A00006010E946C0261E0809108010E946C02CD
:1001B0006091120170911301882777FD8095982F27
:1001C0000E94DC0160E0809108010E946C0261E005
:1001D00080910A010E946C026091120170911301DA
:1001E000882777FD8095982F0E94DC0160E0809140
:1001F0000A010E946C0261E080910C010E946C0275
:100200006091120170911301882777FD8095982FD6
:100210000E94DC0160E080910C010E946C0261E0B0
:1002200080910E010E946C02609112017091130185
:10023000882777FD8095982F0E94DC0160E08091EF
:100240000E010E946C0261E0809110010E946C021C
:100250006091120170911301882777FD8095982F86
:100260000E94DC0160E0809110010E946C02089500
:1002700061E0809100010E944E0261E080910201E4
:100280000E944E0261E0809104010E944E0261E0F2
:10029000809106010E944E0261E0809108010E9457
:1002A0004E0261E080910A010E944E0261E080915D
:1002B0000C010E944E0261E080910E010E944E02EC
:1002C00061E0809110010E944E0260E08AE00E948D
:1002D0004E0208950E9414020E9438010E94790083
:1002E000FDCF1F920F920FB60F9211242F938F9371
:1002F0009F93AF93BF938091160190911701A091A6
:100300001801B09119018050904CAF4FBF4F8093AE
:10031000160190931701A0931801B093190127C0FB
:100320008091160190911701A0911801B0911901C7
:1003300080589E43A040B0408093160190931701CF
:10034000A0931801B093190180911A0190911B019B
:10035000A0911C01B0911D010196A11DB11D8093BA
:100360001A0190931B01A0931C01B0931D01809171
:10037000160190911701A0911801B09119018158AF
:100380009E43A040B04060F6BF91AF919F918F9186
:100390002F910F900FBE0F901F9018958FB7F89464
:1003A00020911A0130911B0140911C0150911D01B7
:1003B0008FBFB901CA010895EF92FF920F931F9367
:1003C0007B018C018FB7F89440911A0150911B0169
:1003D00060911C0170911D018FBF2FB7F89480911F
:1003E0001A0190911B01A0911C01B0911D012FBF1A
:1003F000841B950BA60BB70B8E159F05A007B107A5
:1004000060F31F910F91FF90EF900895019759F0BD
:10041000FC01EE0FFF1FEE0FFF1F32978FB7F8940E
:100420003197F1F78FBF0895789484B5826084BDC9
:1004300084B5816084BD85B5826085BD85B58160E8
:1004400085BDEEE6F0E0808181608083E1E8F0E048
:10045000808182608083808181608083E0E8F0E039
:10046000808181608083E1EBF0E080818460808323
:10047000E0EBF0E0808181608083EAE7F0E080815A
:1004800084608083808182608083808181608083BA
:100490008081806880831092C1000895282F30E009
:1004A000C90185579F4FFC01949129583F4FF9018D
:1004B0008491882381F0E82FF0E0E859FF4FE49120
:1004C000F0E0662329F48081909589238083089544
:1004D0008081892B80830895482F50E0CA0181567E
:1004E0009F4FFC012491CA0185579F4FFC019491B5
:1004F00049585F4FFA0134913323C1F1222331F17E
:10050000233021F4809180008F7705C0243031F4AE
:10051000809180008F7D8093800018C0213019F475
:1005200084B58F7704C0223021F484B58F7D84BDDB
:100530000DC0263021F48091B0008F7705C02730A0
:1005400029F48091B0008F7D8093B000E32FF0E01C
:10055000E359FF4FE491F0E0662329F48081909500
:100560008923808308958081892B80830895482F73
:1005700050E0CA0181569F4FFC012491CA01855762
:100580009F4FFC01949149585F4FFA0134913323F6
:1005900019F420E030E035C0222331F1233021F47A
:1005A000809180008F7705C0243031F480918000E5
:1005B0008F7D8093800018C0213019F484B58F7727
:1005C00004C0223021F484B58F7D84BD0DC0263057
:1005D00021F48091B0008F7705C0273029F48091F5
:1005E000B0008F7D8093B000E32FF0E0EE58FF4F16
:1005F000E491F0E0808120E030E0892311F021E0F7
:0A06000030E0C9010895F894FFCF1F
:10060A0001000200030004000500060007000800BC
:04061A000900FA00D9
:00000001FF
