:100000000C945A000C9477000C9477000C947700B1
:100010000C9477000C9477000C9477000C94770084
:100020000C9477000C9477000C9477000C94770074
:100030000C9477000C9477000C9477000C94770064
:100040000C9405010C9477000C9477000C947700C5
:100050000C9477000C9477000C9477000C94770044
:100060000C9477000C947700000024272A000025C8
:10007000282B000023262904040404040404040299
:100080000202020202030303030303010204081035
:100090002040800102040810200102040810200002
:1000A0000000070002010000030406000000000039
:1000B0000000000011241FBECFEFD4E0DEBFCDBF93
:1000C00011E0A0E0B1E0E0E8F5E002C005900D929B
:1000D000A831B107D9F711E0A8E1B1E001C01D9244
:1000E000A232B107E1F70E94FE000C94BE020C940C
:1000F00000008AE00E944B02209118013091190102
:100100000197C9F46091140170911501C90101961C
:100110000E9497029C019093190180931801009707
:1001200019F488E090E022C021503040309317014C
:10013000209316011FC02115310539F488E090E0A5
:10014000909319018093180106C0215030403093DC
:100150001901209318018091180190911901609163
:1001600014017091150101960E9497029093170156
:1001700080931601E0911601F0911701EE0FFF1F19
:10018000EE5FFE4F60E080810E940002E091180166
:10019000F0911901EE0FFF1FEE5FFE4F61E08081CD
:1001A0000E9400026091000170910101882777FD93
:1001B0008095982F0E94700108950F931F93CF93FD
:1001C000DF9360E08AE00E94E20102E011E0C0E01B
:1001D000D0E008C061E0F80180810E94E201219630
:1001E0000E5F1F4F8091140190911501C817D90718
:1001F0008CF3DF91CF911F910F9108950E94A80178
:100200000E94DD000E947900FDCF1F920F920FB671
:100210000F9211242F938F939F93AF93BF9380914D
:100220001A0190911B01A0911C01B0911D018050F9
:10023000904CAF4FBF4F80931A0190931B01A09336
:100240001C01B0931D0127C080911A0190911B01E0
:10025000A0911C01B0911D0180589E43A040B04068
:1002600080931A0190931B01A0931C01B0931D0170
:1002700080911E0190911F01A0912001B091210158
:100280000196A11DB11D80931E0190931F01A093A3
:100290002001B093210180911A0190911B01A0913E
:1002A0001C01B0911D0181589E43A040B04060F6F2
:1002B000BF91AF919F918F912F910F900FBE0F9093
:1002C0001F9018958FB7F89420911E0130911F014F
:1002D00040912001509121018FBFB901CA010895B9
:1002E000EF92FF920F931F937B018C018FB7F894CD
:1002F00040911E0150911F016091200170912101D8
:100300008FBF2FB7F89480911E0190911F01A0918B
:100310002001B09121012FBF841B950BA60BB70BB9
:100320008E159F05A007B10760F31F910F91FF90F5
:10033000EF900895019759F0FC01EE0FFF1FEE0FAB
:10034000FF1F32978FB7F8943197F1F78FBF089559
:10035000789484B5826084BD84B5816084BD85B5A0
:10036000826085BD85B5816085BDEEE6F0E0808167
:1003700081608083E1E8F0E0808182608083808119
:1003800081608083E0E8F0E0808181608083E1EB40
:10039000F0E0808184608083E0EBF0E08081816028
:1003A0008083EAE7F0E080818460808380818260DE
:1003B00080838081816080838081806880831092C7
:1003C000C1000895282F30E0C90185579F4FFC01D7
:1003D000949129583F4FF9018491882381F0E82FA7
:1003E000F0E0E859FF4FE491F0E0662329F48081C2
:1003F00090958923808308958081892B8083089537
:10040000482F50E0CA0181569F4FFC012491CA0138
:1004100085579F4FFC01949149585F4FFA013491E1
:100420003323C1F1222331F1233021F48091800064
:100430008F7705C0243031F4809180008F7D8093C8
:10044000800018C0213019F484B58F7704C02230A1
:1004500021F484B58F7D84BD0DC0263021F48091B8
:10046000B0008F7705C0273029F48091B0008F7DD0
:100470008093B000E32FF0E0E359FF4FE491F0E008
:10048000662329F480819095892380830895808153
:10049000892B80830895482F50E0CA0181569F4FD1
:1004A000FC012491CA0185579F4FFC019491495842
:1004B0005F4FFA013491332319F420E030E035C066
:1004C000222331F1233021F4809180008F7705C001
:1004D000243031F4809180008F7D8093800018C09B
:1004E000213019F484B58F7704C0223021F484B50B
:1004F0008F7D84BD0DC0263021F48091B0008F77B0
:1005000005C0273029F48091B0008F7D8093B00022
:10051000E32FF0E0EE58FF4FE491F0E0808120E01F
:1005200030E0892311F021E030E0C901089597FB04
:10053000092E07260AD077FD04D00CD006D0002063
:100540001AF4709561957F4F0895F6F7909581950F
:100550009F4F0895AA1BBB1B51E107C0AA1FBB1FD9
:10056000A617B70710F0A61BB70B881F991F5A953F
:10057000A9F780959095BC01CD010895F894FFCF1F
:10058000320001000200030004000500060007001D
:08059000080009000900090040
:00000001FF
